{
  "contractName": "CampaignTokenFundraiser",
  "abi": [
    {
      "constant": true,
      "inputs": [
        {
          "name": "",
          "type": "uint256"
        }
      ],
      "name": "participants",
      "outputs": [
        {
          "name": "addr",
          "type": "address"
        },
        {
          "name": "weiDonated",
          "type": "uint256"
        }
      ],
      "payable": false,
      "stateMutability": "view",
      "type": "function"
    },
    {
      "constant": true,
      "inputs": [],
      "name": "beneficiary",
      "outputs": [
        {
          "name": "",
          "type": "address"
        }
      ],
      "payable": false,
      "stateMutability": "view",
      "type": "function"
    },
    {
      "constant": true,
      "inputs": [],
      "name": "minCap",
      "outputs": [
        {
          "name": "",
          "type": "uint256"
        }
      ],
      "payable": false,
      "stateMutability": "view",
      "type": "function"
    },
    {
      "constant": true,
      "inputs": [],
      "name": "description",
      "outputs": [
        {
          "name": "",
          "type": "string"
        }
      ],
      "payable": false,
      "stateMutability": "view",
      "type": "function"
    },
    {
      "constant": true,
      "inputs": [],
      "name": "conversionRate",
      "outputs": [
        {
          "name": "",
          "type": "uint256"
        }
      ],
      "payable": false,
      "stateMutability": "view",
      "type": "function"
    },
    {
      "constant": true,
      "inputs": [],
      "name": "owner",
      "outputs": [
        {
          "name": "",
          "type": "address"
        }
      ],
      "payable": false,
      "stateMutability": "view",
      "type": "function"
    },
    {
      "constant": true,
      "inputs": [],
      "name": "state",
      "outputs": [
        {
          "name": "",
          "type": "uint8"
        }
      ],
      "payable": false,
      "stateMutability": "view",
      "type": "function"
    },
    {
      "constant": true,
      "inputs": [],
      "name": "endDate",
      "outputs": [
        {
          "name": "",
          "type": "uint256"
        }
      ],
      "payable": false,
      "stateMutability": "view",
      "type": "function"
    },
    {
      "inputs": [
        {
          "name": "_beneficiary",
          "type": "address"
        },
        {
          "name": "_endDate",
          "type": "uint256"
        },
        {
          "name": "_conversionRate",
          "type": "uint256"
        },
        {
          "name": "_description",
          "type": "string"
        },
        {
          "name": "_minCap",
          "type": "uint256"
        }
      ],
      "payable": false,
      "stateMutability": "nonpayable",
      "type": "constructor"
    },
    {
      "payable": true,
      "stateMutability": "payable",
      "type": "fallback"
    },
    {
      "anonymous": false,
      "inputs": [
        {
          "indexed": false,
          "name": "state",
          "type": "uint8"
        },
        {
          "indexed": false,
          "name": "msg",
          "type": "string"
        }
      ],
      "name": "StateChanged",
      "type": "event"
    },
    {
      "constant": false,
      "inputs": [],
      "name": "buyTokens",
      "outputs": [],
      "payable": true,
      "stateMutability": "payable",
      "type": "function"
    },
    {
      "constant": false,
      "inputs": [],
      "name": "invalidate",
      "outputs": [],
      "payable": false,
      "stateMutability": "nonpayable",
      "type": "function"
    },
    {
      "constant": false,
      "inputs": [],
      "name": "sendTokens",
      "outputs": [],
      "payable": false,
      "stateMutability": "nonpayable",
      "type": "function"
    },
    {
      "constant": true,
      "inputs": [],
      "name": "getCampaignBalance",
      "outputs": [
        {
          "name": "",
          "type": "uint256"
        }
      ],
      "payable": false,
      "stateMutability": "view",
      "type": "function"
    },
    {
      "constant": true,
      "inputs": [],
      "name": "getParticipantsNumber",
      "outputs": [
        {
          "name": "",
          "type": "uint256"
        }
      ],
      "payable": false,
      "stateMutability": "view",
      "type": "function"
    },
    {
      "constant": true,
      "inputs": [],
      "name": "getState",
      "outputs": [
        {
          "name": "",
          "type": "uint8"
        }
      ],
      "payable": false,
      "stateMutability": "view",
      "type": "function"
    },
    {
      "constant": false,
      "inputs": [],
      "name": "close",
      "outputs": [],
      "payable": false,
      "stateMutability": "nonpayable",
      "type": "function"
    }
  ],
  "bytecode": "0x606060405234156200001057600080fd5b604051620011f1380380620011f183398101604052808051906020019091908051906020019091908051906020019091908051820191906020018051906020019091905050600073ffffffffffffffffffffffffffffffffffffffff168573ffffffffffffffffffffffffffffffffffffffff16141515156200009257600080fd5b84600260006101000a81548173ffffffffffffffffffffffffffffffffffffffff021916908373ffffffffffffffffffffffffffffffffffffffff16021790555082600381905550836004819055508160069080519060200190620000f992919062000200565b50806005819055506000600160146101000a81548160ff021916908360048111156200012157fe5b02179055507f929b463118896093c309657e0a07aac2ab8405752b1208f06b5efac484c06280600160149054906101000a900460ff16604051808260048111156200016857fe5b60ff16815260200180602001828103825260178152602001807f43616d706169676e546f6b656e46756e647261697365720000000000000000008152506020019250505060405180910390a133600160006101000a81548173ffffffffffffffffffffffffffffffffffffffff021916908373ffffffffffffffffffffffffffffffffffffffff1602179055505050505050620002af565b828054600181600116156101000203166002900490600052602060002090601f016020900481019282601f106200024357805160ff191683800117855562000274565b8280016001018555821562000274579182015b828111156200027357825182559160200191906001019062000256565b5b50905062000283919062000287565b5090565b620002ac91905b80821115620002a85760008160009055506001016200028e565b5090565b90565b610f3280620002bf6000396000f3006060604052600436106100db576000357c0100000000000000000000000000000000000000000000000000000000900463ffffffff1680630abb4fe3146100e55780631865c57d1461010e57806335c1d3491461014557806338af3eed146101af5780633fa615b01461020457806343d726d61461022d5780637284e416146102425780637ffdf53e146102d05780638da5cb5b146102f95780639fb2fff41461034e578063bfeba22714610363578063c19d93fb1461038c578063c24a0f8b146103c3578063d0febe4c146103ec578063e47112bd146103f6575b6100e361040b565b005b34156100f057600080fd5b6100f861050e565b6040518082815260200191505060405180910390f35b341561011957600080fd5b61012161051a565b6040518082600481111561013157fe5b60ff16815260200191505060405180910390f35b341561015057600080fd5b6101666004808035906020019091905050610531565b604051808373ffffffffffffffffffffffffffffffffffffffff1673ffffffffffffffffffffffffffffffffffffffff1681526020018281526020019250505060405180910390f35b34156101ba57600080fd5b6101c2610584565b604051808273ffffffffffffffffffffffffffffffffffffffff1673ffffffffffffffffffffffffffffffffffffffff16815260200191505060405180910390f35b341561020f57600080fd5b6102176105aa565b6040518082815260200191505060405180910390f35b341561023857600080fd5b6102406105b0565b005b341561024d57600080fd5b610255610688565b6040518080602001828103825283818151815260200191508051906020019080838360005b8381101561029557808201518184015260208101905061027a565b50505050905090810190601f1680156102c25780820380516001836020036101000a031916815260200191505b509250505060405180910390f35b34156102db57600080fd5b6102e3610726565b6040518082815260200191505060405180910390f35b341561030457600080fd5b61030c61072c565b604051808273ffffffffffffffffffffffffffffffffffffffff1673ffffffffffffffffffffffffffffffffffffffff16815260200191505060405180910390f35b341561035957600080fd5b610361610752565b005b341561036e57600080fd5b61037661094e565b6040518082815260200191505060405180910390f35b341561039757600080fd5b61039f61096d565b604051808260048111156103af57fe5b60ff16815260200191505060405180910390f35b34156103ce57600080fd5b6103d6610980565b6040518082815260200191505060405180910390f35b6103f461040b565b005b341561040157600080fd5b610409610986565b005b6000600481111561041857fe5b600160149054906101000a900460ff16600481111561043357fe5b14151561043f57600080fd5b600454421115151561045057600080fd5b640ba43b74003a1115151561046457600080fd5b600080548060010182816104789190610e86565b9160005260206000209060020201600060408051908101604052803373ffffffffffffffffffffffffffffffffffffffff16815260200134815250909190915060008201518160000160006101000a81548173ffffffffffffffffffffffffffffffffffffffff021916908373ffffffffffffffffffffffffffffffffffffffff16021790555060208201518160010155505050565b60008080549050905090565b6000600160149054906101000a900460ff16905090565b60008181548110151561054057fe5b90600052602060002090600202016000915090508060000160009054906101000a900473ffffffffffffffffffffffffffffffffffffffff16908060010154905082565b600260009054906101000a900473ffffffffffffffffffffffffffffffffffffffff1681565b60055481565b600160009054906101000a900473ffffffffffffffffffffffffffffffffffffffff1673ffffffffffffffffffffffffffffffffffffffff163373ffffffffffffffffffffffffffffffffffffffff1614151561060c57600080fd5b6000600481111561061957fe5b600160149054906101000a900460ff16600481111561063457fe5b14151561064057600080fd5b6005543073ffffffffffffffffffffffffffffffffffffffff16311015801561066b57506004544211155b1561067d57610678610bfb565b610686565b610685610752565b5b565b60068054600181600116156101000203166002900480601f01602080910402602001604051908101604052809291908181526020018280546001816001161561010002031660029004801561071e5780601f106106f35761010080835404028352916020019161071e565b820191906000526020600020905b81548152906001019060200180831161070157829003601f168201915b505050505081565b60035481565b600160009054906101000a900473ffffffffffffffffffffffffffffffffffffffff1681565b600160009054906101000a900473ffffffffffffffffffffffffffffffffffffffff1673ffffffffffffffffffffffffffffffffffffffff163373ffffffffffffffffffffffffffffffffffffffff161415156107ae57600080fd5b600060048111156107bb57fe5b600160149054906101000a900460ff1660048111156107d657fe5b1415156107e257600080fd5b6002600160146101000a81548160ff0219169083600481111561080157fe5b02179055507f929b463118896093c309657e0a07aac2ab8405752b1208f06b5efac484c06280600160149054906101000a900460ff166040518082600481111561084757fe5b60ff168152602001806020018281038252600a8152602001807f696e76616c6964617465000000000000000000000000000000000000000000008152506020019250505060405180910390a161089b610d73565b6004600160146101000a81548160ff021916908360048111156108ba57fe5b02179055507f929b463118896093c309657e0a07aac2ab8405752b1208f06b5efac484c06280600160149054906101000a900460ff166040518082600481111561090057fe5b60ff168152602001806020018281038252600a8152602001807f696e76616c6964617465000000000000000000000000000000000000000000008152506020019250505060405180910390a1565b60003073ffffffffffffffffffffffffffffffffffffffff1631905090565b600160149054906101000a900460ff1681565b60045481565b6000806001600481111561099657fe5b600160149054906101000a900460ff1660048111156109b157fe5b1415156109bd57600080fd5b600091505b600080549050821015610b4657610a046003546000848154811015156109e457fe5b906000526020600020906002020160010154610e6b90919063ffffffff16565b9050600260009054906101000a900473ffffffffffffffffffffffffffffffffffffffff1673ffffffffffffffffffffffffffffffffffffffff1663a9059cbb600084815481101515610a5357fe5b906000526020600020906002020160000160009054906101000a900473ffffffffffffffffffffffffffffffffffffffff16836000604051602001526040518363ffffffff167c0100000000000000000000000000000000000000000000000000000000028152600401808373ffffffffffffffffffffffffffffffffffffffff1673ffffffffffffffffffffffffffffffffffffffff16815260200182815260200192505050602060405180830381600087803b1515610b1357600080fd5b6102c65a03f11515610b2457600080fd5b505050604051805190501515610b3957600080fd5b81806001019250506109c2565b6003600160146101000a81548160ff02191690836004811115610b6557fe5b02179055507f929b463118896093c309657e0a07aac2ab8405752b1208f06b5efac484c06280600160149054906101000a900460ff1660405180826004811115610bab57fe5b60ff168152602001806020018281038252600a8152602001807f73656e64546f6b656e73000000000000000000000000000000000000000000008152506020019250505060405180910390a15050565b600160009054906101000a900473ffffffffffffffffffffffffffffffffffffffff1673ffffffffffffffffffffffffffffffffffffffff163373ffffffffffffffffffffffffffffffffffffffff16141515610c5757600080fd5b600260009054906101000a900473ffffffffffffffffffffffffffffffffffffffff1673ffffffffffffffffffffffffffffffffffffffff163073ffffffffffffffffffffffffffffffffffffffff163160405160006040518083038185876187965a03f1925050505060018060146101000a81548160ff02191690836004811115610cdf57fe5b02179055507f929b463118896093c309657e0a07aac2ab8405752b1208f06b5efac484c06280600160149054906101000a900460ff1660405180826004811115610d2557fe5b60ff16815260200180602001828103825260178152602001807f73656e64546f6b656e73546f42656e65666963696172790000000000000000008152506020019250505060405180910390a1565b600060026004811115610d8257fe5b600160149054906101000a900460ff166004811115610d9d57fe5b141515610da957600080fd5b600090505b600080549050811015610e6857600081815481101515610dca57fe5b906000526020600020906002020160000160009054906101000a900473ffffffffffffffffffffffffffffffffffffffff1673ffffffffffffffffffffffffffffffffffffffff166108fc600083815481101515610e2457fe5b9060005260206000209060020201600101549081150290604051600060405180830381858888f193505050501515610e5b57600080fd5b8080600101915050610dae565b50565b6000808284811515610e7957fe5b0490508091505092915050565b815481835581811511610eb357600202816002028360005260206000209182019101610eb29190610eb8565b5b505050565b610f0391905b80821115610eff57600080820160006101000a81549073ffffffffffffffffffffffffffffffffffffffff0219169055600182016000905550600201610ebe565b5090565b905600a165627a7a72305820f4c7d22c8cf58b9884ac6f0966d979d9cb4c71db4cc2b7c51714a02af9c177220029",
  "source": "pragma solidity ^0.4.18;\r\n\r\nimport './libraries/SafeMath.sol';\r\nimport './interfaces/ERC20Basic.sol';\r\n\r\n//  TODO: Move money logic to a Vault contract\r\n\r\ncontract CampaignTokenFundraiser {\r\n   \r\n    using SafeMath for uint;\r\n\r\n    enum State { CollectingFunds, WaitingForTokens, Refunding, Completed, Canceled }\r\n\r\n    struct Participant {\r\n        address addr;\r\n        uint weiDonated;\r\n    }\r\n\r\n    /** \r\n     * @dev Access control modifier that allows only the current owner to call the function.\r\n     */\r\n    modifier onlyOwner {\r\n        require(msg.sender == owner);\r\n        _;\r\n    }\r\n\r\n    event StateChanged(State state, string msg);\r\n\r\n    // Account balances\r\n    Participant[] public participants;\r\n\r\n    //The current contract owner\r\n    address public owner;\r\n\r\n    //The current state of the campaign\r\n    State public state;\r\n\r\n    // Maximum gas price limit\r\n    uint constant MAX_GAS_PRICE = 50000000000 wei; // 50 gwei/shanon\r\n\r\n    // The address of the account which will receive the funds gathered by the campaign\r\n    ERC20Basic public beneficiary;\r\n\r\n    // The number of wei participants pay per token\r\n    uint public conversionRate;\r\n\r\n    //the date on which the campaign is closed\r\n    uint public endDate;\r\n\r\n    // Minimum amounts of Wei to be collected, before the campaign can be finalized\r\n    uint public minCap;\r\n\r\n    // Amount of wei collected during the campaign\r\n    string public description;\r\n\r\n    /**\r\n     * @dev The constructor.\r\n     * @param _beneficiary The address which will receive the funds gathered by the campaign\r\n     */\r\n    function CampaignTokenFundraiser(ERC20Basic _beneficiary,  uint _endDate, uint _conversionRate, string _description, uint _minCap) public {\r\n        require(_beneficiary != address(0));\r\n\r\n        beneficiary = _beneficiary;\r\n        conversionRate = _conversionRate;\r\n        endDate = _endDate;\r\n        description = _description;\r\n        minCap = _minCap;\r\n        state = State.CollectingFunds;\r\n        StateChanged(state, \"CampaignTokenFundraiser\");\r\n        owner = msg.sender;\r\n    }\r\n\r\n    /**\r\n     * @dev The default function which will fire every time someone sends ethers to this contract's address.\r\n     */\r\n    function() public payable {\r\n        buyTokens();\r\n    }\r\n\r\n    /**\r\n     * @dev Allows users to participate in the pre-sale crowdfunding\r\n     */\r\n    function buyTokens() public payable {\r\n        require(state == State.CollectingFunds);\r\n        require(now <= endDate);\r\n        require(tx.gasprice <= MAX_GAS_PRICE);  // gas price limit\r\n\r\n        participants.push(Participant(msg.sender, msg.value));\r\n    }\r\n\r\n    function invalidate() public onlyOwner {\r\n        require(state == State.CollectingFunds);\r\n\r\n        state = State.Refunding;\r\n        StateChanged(state, \"invalidate\");\r\n        refund();        \r\n        state = State.Canceled;\r\n        StateChanged(state, \"invalidate\");\r\n    }\r\n\r\n    function sendTokens() public {\r\n        require(state == State.WaitingForTokens);\r\n\r\n        for (uint i = 0; i < participants.length; i++) {\r\n            uint tokens = participants[i].weiDonated.div(conversionRate);\r\n            require(beneficiary.transfer(participants[i].addr, tokens));\r\n        }\r\n        \r\n        state = State.Completed;\r\n        StateChanged(state, \"sendTokens\");\r\n    }\r\n\r\n    function refund() private {\r\n        require(state == State.Refunding);\r\n\r\n        for (uint i = 0; i < participants.length; i++) {\r\n            participants[i].addr.transfer(participants[i].weiDonated);\r\n        }\r\n    }\r\n\r\n    function sendTokensToBeneficiary() private onlyOwner {\r\n        address(beneficiary).call.value(this.balance)();\r\n        state = State.WaitingForTokens;\r\n        StateChanged(state, \"sendTokensToBeneficiary\");\r\n    }\r\n\r\n    function getCampaignBalance() view public returns (uint) {\r\n        return this.balance;\r\n    }\r\n    \r\n    function getParticipantsNumber() view public returns (uint) {\r\n        return participants.length;\r\n    }\r\n\r\n    function getState() view public returns (State) {\r\n        return state;\r\n    }\r\n\r\n    /**\r\n     * @dev Close the campaign if `endDate` has not passed and if funds have been collected\r\n     */\r\n    function close() public onlyOwner {\r\n        require(state == State.CollectingFunds);\r\n\r\n        if (this.balance >= minCap && now <= endDate) {\r\n            sendTokensToBeneficiary();\r\n        } else {\r\n            invalidate();\r\n        }\r\n    }\r\n}\r\n",
  "sourcePath": "D:\\Projects\\DevCamp-SoftUni\\AppDApp\\Contracts\\contracts\\CampaignTokenFundraiser.sol",
  "compiler": {
    "name": "solc",
    "version": "0.4.19+commit.c4cbbb05.Emscripten.clang"
  },
  "schemaVersion": "1.0.1",
  "updatedAt": "2018-03-09T19:51:22.115Z"
}