{
  "contractName": "FundSharesToken",
  "abi": [
    {
      "constant": true,
      "inputs": [],
      "name": "minParticipation",
      "outputs": [
        {
          "name": "",
          "type": "uint256"
        }
      ],
      "payable": false,
      "stateMutability": "view",
      "type": "function"
    },
    {
      "constant": true,
      "inputs": [],
      "name": "name",
      "outputs": [
        {
          "name": "",
          "type": "string"
        }
      ],
      "payable": false,
      "stateMutability": "view",
      "type": "function"
    },
    {
      "constant": true,
      "inputs": [],
      "name": "decimals",
      "outputs": [
        {
          "name": "",
          "type": "uint8"
        }
      ],
      "payable": false,
      "stateMutability": "view",
      "type": "function"
    },
    {
      "constant": true,
      "inputs": [],
      "name": "conversionRate",
      "outputs": [
        {
          "name": "",
          "type": "uint256"
        }
      ],
      "payable": false,
      "stateMutability": "view",
      "type": "function"
    },
    {
      "constant": true,
      "inputs": [],
      "name": "owner",
      "outputs": [
        {
          "name": "",
          "type": "address"
        }
      ],
      "payable": false,
      "stateMutability": "view",
      "type": "function"
    },
    {
      "constant": true,
      "inputs": [],
      "name": "symbol",
      "outputs": [
        {
          "name": "",
          "type": "string"
        }
      ],
      "payable": false,
      "stateMutability": "view",
      "type": "function"
    },
    {
      "inputs": [
        {
          "name": "_name",
          "type": "string"
        },
        {
          "name": "_symbol",
          "type": "string"
        },
        {
          "name": "_totalSupply",
          "type": "uint256"
        },
        {
          "name": "_rate",
          "type": "uint256"
        },
        {
          "name": "_minParticipation",
          "type": "uint256"
        }
      ],
      "payable": false,
      "stateMutability": "nonpayable",
      "type": "constructor"
    },
    {
      "payable": true,
      "stateMutability": "payable",
      "type": "fallback"
    },
    {
      "anonymous": false,
      "inputs": [
        {
          "indexed": true,
          "name": "from",
          "type": "address"
        },
        {
          "indexed": true,
          "name": "to",
          "type": "address"
        },
        {
          "indexed": false,
          "name": "value",
          "type": "uint256"
        }
      ],
      "name": "Transfer",
      "type": "event"
    },
    {
      "constant": true,
      "inputs": [],
      "name": "totalSupply",
      "outputs": [
        {
          "name": "",
          "type": "uint256"
        }
      ],
      "payable": false,
      "stateMutability": "view",
      "type": "function"
    },
    {
      "constant": true,
      "inputs": [
        {
          "name": "_account",
          "type": "address"
        }
      ],
      "name": "balanceOf",
      "outputs": [
        {
          "name": "balance",
          "type": "uint256"
        }
      ],
      "payable": false,
      "stateMutability": "view",
      "type": "function"
    },
    {
      "constant": false,
      "inputs": [
        {
          "name": "_to",
          "type": "address"
        },
        {
          "name": "_value",
          "type": "uint256"
        }
      ],
      "name": "transfer",
      "outputs": [
        {
          "name": "success",
          "type": "bool"
        }
      ],
      "payable": false,
      "stateMutability": "nonpayable",
      "type": "function"
    },
    {
      "constant": false,
      "inputs": [
        {
          "name": "_rate",
          "type": "uint256"
        }
      ],
      "name": "setConversionRate",
      "outputs": [],
      "payable": false,
      "stateMutability": "nonpayable",
      "type": "function"
    },
    {
      "constant": false,
      "inputs": [],
      "name": "buyTokens",
      "outputs": [],
      "payable": true,
      "stateMutability": "payable",
      "type": "function"
    },
    {
      "constant": true,
      "inputs": [],
      "name": "contractBalance",
      "outputs": [
        {
          "name": "",
          "type": "uint256"
        }
      ],
      "payable": false,
      "stateMutability": "view",
      "type": "function"
    }
  ],
  "bytecode": "0x60606040526012600660006101000a81548160ff021916908360ff160217905550341561002b57600080fd5b604051610d43380380610d438339810160405280805182019190602001805182019190602001805190602001909190805190602001909190805190602001909190505033600160006101000a81548173ffffffffffffffffffffffffffffffffffffffff021916908373ffffffffffffffffffffffffffffffffffffffff16021790555084600290805190602001906100c5929190610161565b5083600390805190602001906100dc929190610161565b508260048190555082600080600160009054906101000a900473ffffffffffffffffffffffffffffffffffffffff1673ffffffffffffffffffffffffffffffffffffffff1673ffffffffffffffffffffffffffffffffffffffff1681526020019081526020016000208190555081600781905550806005819055505050505050610206565b828054600181600116156101000203166002900490600052602060002090601f016020900481019282601f106101a257805160ff19168380011785556101d0565b828001600101855582156101d0579182015b828111156101cf5782518255916020019190600101906101b4565b5b5090506101dd91906101e1565b5090565b61020391905b808211156101ff5760008160009055506001016101e7565b5090565b90565b610b2e806102156000396000f3006060604052600436106100ba576000357c0100000000000000000000000000000000000000000000000000000000900463ffffffff168063054fd2c2146100c457806306fdde03146100ed57806318160ddd1461017b578063313ce567146101a457806370a08231146101d35780637ffdf53e146102205780638b7afe2e146102495780638da5cb5b1461027257806395d89b41146102c7578063a9059cbb14610355578063d0febe4c146103af578063d2e80494146103b9575b6100c26103dc565b005b34156100cf57600080fd5b6100d761040c565b6040518082815260200191505060405180910390f35b34156100f857600080fd5b610100610412565b6040518080602001828103825283818151815260200191508051906020019080838360005b83811015610140578082015181840152602081019050610125565b50505050905090810190601f16801561016d5780820380516001836020036101000a031916815260200191505b509250505060405180910390f35b341561018657600080fd5b61018e6104b0565b6040518082815260200191505060405180910390f35b34156101af57600080fd5b6101b76104ba565b604051808260ff1660ff16815260200191505060405180910390f35b34156101de57600080fd5b61020a600480803573ffffffffffffffffffffffffffffffffffffffff169060200190919050506104cd565b6040518082815260200191505060405180910390f35b341561022b57600080fd5b610233610515565b6040518082815260200191505060405180910390f35b341561025457600080fd5b61025c61051b565b6040518082815260200191505060405180910390f35b341561027d57600080fd5b61028561053a565b604051808273ffffffffffffffffffffffffffffffffffffffff1673ffffffffffffffffffffffffffffffffffffffff16815260200191505060405180910390f35b34156102d257600080fd5b6102da610560565b6040518080602001828103825283818151815260200191508051906020019080838360005b8381101561031a5780820151818401526020810190506102ff565b50505050905090810190601f1680156103475780820380516001836020036101000a031916815260200191505b509250505060405180910390f35b341561036057600080fd5b610395600480803573ffffffffffffffffffffffffffffffffffffffff169060200190919080359060200190919050506105fe565b604051808215151515815260200191505060405180910390f35b6103b76103dc565b005b34156103c457600080fd5b6103da60048080359060200190919050506107a9565b005b60008034915060055482101515156103f357600080fd5b6103fc82610820565b9050610408338261083e565b5050565b60055481565b60028054600181600116156101000203166002900480601f0160208091040260200160405190810160405280929190818152602001828054600181600116156101000203166002900480156104a85780601f1061047d576101008083540402835291602001916104a8565b820191906000526020600020905b81548152906001019060200180831161048b57829003601f168201915b505050505081565b6000600454905090565b600660009054906101000a900460ff1681565b60008060008373ffffffffffffffffffffffffffffffffffffffff1673ffffffffffffffffffffffffffffffffffffffff168152602001908152602001600020549050919050565b60075481565b60003073ffffffffffffffffffffffffffffffffffffffff1631905090565b600160009054906101000a900473ffffffffffffffffffffffffffffffffffffffff1681565b60038054600181600116156101000203166002900480601f0160208091040260200160405190810160405280929190818152602001828054600181600116156101000203166002900480156105f65780601f106105cb576101008083540402835291602001916105f6565b820191906000526020600020905b8154815290600101906020018083116105d957829003601f168201915b505050505081565b6000816000803373ffffffffffffffffffffffffffffffffffffffff1673ffffffffffffffffffffffffffffffffffffffff16815260200190815260200160002054108061064c5750600082145b1561065a57600090506107a3565b816000803373ffffffffffffffffffffffffffffffffffffffff1673ffffffffffffffffffffffffffffffffffffffff168152602001908152602001600020600082825403925050819055506106f7826000808673ffffffffffffffffffffffffffffffffffffffff1673ffffffffffffffffffffffffffffffffffffffff16815260200190815260200160002054610ab090919063ffffffff16565b6000808573ffffffffffffffffffffffffffffffffffffffff1673ffffffffffffffffffffffffffffffffffffffff168152602001908152602001600020819055508273ffffffffffffffffffffffffffffffffffffffff163373ffffffffffffffffffffffffffffffffffffffff167fddf252ad1be2c89b69c2b068fc378daa952ba7f163c4a11628f55a4df523b3ef846040518082815260200191505060405180910390a3600190505b92915050565b600160009054906101000a900473ffffffffffffffffffffffffffffffffffffffff1673ffffffffffffffffffffffffffffffffffffffff163373ffffffffffffffffffffffffffffffffffffffff1614151561080557600080fd5b600060075411151561081657600080fd5b8060078190555050565b600061083760075483610ace90919063ffffffff16565b9050919050565b80600080600160009054906101000a900473ffffffffffffffffffffffffffffffffffffffff1673ffffffffffffffffffffffffffffffffffffffff1673ffffffffffffffffffffffffffffffffffffffff168152602001908152602001600020541115156108ac57600080fd5b6000811115156108bb57600080fd5b61090c816000808573ffffffffffffffffffffffffffffffffffffffff1673ffffffffffffffffffffffffffffffffffffffff16815260200190815260200160002054610ab090919063ffffffff16565b6000808473ffffffffffffffffffffffffffffffffffffffff1673ffffffffffffffffffffffffffffffffffffffff168152602001908152602001600020819055506109c181600080600160009054906101000a900473ffffffffffffffffffffffffffffffffffffffff1673ffffffffffffffffffffffffffffffffffffffff1673ffffffffffffffffffffffffffffffffffffffff16815260200190815260200160002054610ae990919063ffffffff16565b600080600160009054906101000a900473ffffffffffffffffffffffffffffffffffffffff1673ffffffffffffffffffffffffffffffffffffffff1673ffffffffffffffffffffffffffffffffffffffff168152602001908152602001600020819055508173ffffffffffffffffffffffffffffffffffffffff16600160009054906101000a900473ffffffffffffffffffffffffffffffffffffffff1673ffffffffffffffffffffffffffffffffffffffff167fddf252ad1be2c89b69c2b068fc378daa952ba7f163c4a11628f55a4df523b3ef836040518082815260200191505060405180910390a35050565b6000808284019050838110151515610ac457fe5b8091505092915050565b6000808284811515610adc57fe5b0490508091505092915050565b6000828211151515610af757fe5b8183039050929150505600a165627a7a72305820242d3c9553202b9f0aca8c8b1be18f8c4f1d0aec580c78bdc2c42491420230820029",
  "source": "pragma solidity ^0.4.18;\r\n\r\nimport './libraries/SafeMath.sol';\r\nimport \"./interfaces/ERC20Basic.sol\";\r\n\r\ncontract FundSharesToken is ERC20Basic {\r\n    using SafeMath for uint;\r\n\r\n    mapping (address => uint) balances;\r\n\r\n    address public owner;\r\n    string public name;\r\n    string public symbol;\r\n    uint public totalSupply;\r\n    uint public minParticipation;\r\n    uint8 public decimals = 18;\r\n    // conversion rate 1 token <> X wei\r\n    uint public conversionRate;\r\n\r\n    modifier onlyOwner {\r\n        require(msg.sender == owner);\r\n        _;\r\n    }\r\n\r\n    function FundSharesToken(string _name, string _symbol, uint _totalSupply, uint _rate, uint _minParticipation) public {\r\n        owner = msg.sender;\r\n        name = _name;\r\n        symbol = _symbol;\r\n        totalSupply = _totalSupply;\r\n        balances[owner] = _totalSupply;\r\n        conversionRate = _rate;\r\n        minParticipation = _minParticipation;\r\n    }\r\n\r\n    function totalSupply() public view returns (uint) {\r\n        return totalSupply;\r\n    }\r\n\r\n    function balanceOf(address _account) public view returns (uint balance) {\r\n        return balances[_account];\r\n    }\r\n\r\n    function transfer(address _to, uint _value) public returns (bool success) {\r\n        if (balances[msg.sender] < _value || _value == 0) {\r\n            return false;\r\n        }\r\n\r\n        balances[msg.sender] -= _value;\r\n        balances[_to] = balances[_to].plus(_value);\r\n        Transfer(msg.sender, _to, _value);\r\n        return true;\r\n    }\r\n\r\n    function setConversionRate(uint _rate) public onlyOwner {\r\n        require(conversionRate > 0);\r\n        conversionRate = _rate;\r\n    }\r\n\r\n    function () external payable {\r\n        buyTokens();\r\n    }\r\n\r\n    function buyTokens() public payable {\r\n        uint weiAmount = msg.value;\r\n        require(weiAmount >= minParticipation);\r\n        \r\n        uint _tokenAmount = _getTokensAmount(weiAmount);\r\n\r\n        _transferPurchasedTokens(msg.sender, _tokenAmount);\r\n    }\r\n\r\n    function _transferPurchasedTokens(address _to, uint _value) internal {\r\n        require(balances[owner] > _value);\r\n        require(_value > 0);\r\n\r\n        balances[_to] = balances[_to].plus(_value);\r\n        balances[owner] = balances[owner].minus(_value);\r\n        Transfer(owner, _to, _value);\r\n    } \r\n\r\n    function _getTokensAmount(uint _weiAmount) internal view returns (uint) {\r\n        return _weiAmount.div(conversionRate);\r\n    }\r\n\r\n    function contractBalance() public view returns (uint) {\r\n        return this.balance;\r\n    }\r\n}\r\n\r\n",
  "sourcePath": "D:\\Projects\\DevCamp-SoftUni\\AppDApp\\Contracts\\contracts\\FundSharesToken.sol",
  "compiler": {
    "name": "solc",
    "version": "0.4.19+commit.c4cbbb05.Emscripten.clang"
  },
  "schemaVersion": "1.0.1",
  "updatedAt": "2018-03-10T13:19:44.313Z"
}