{
  "contractName": "SimpleContract",
  "abi": [
    {
      "inputs": [],
      "payable": false,
      "stateMutability": "nonpayable",
      "type": "constructor"
    },
    {
      "payable": true,
      "stateMutability": "payable",
      "type": "fallback"
    },
    {
      "constant": false,
      "inputs": [
        {
          "name": "_weiAmount",
          "type": "uint256"
        }
      ],
      "name": "receiveEthers",
      "outputs": [],
      "payable": true,
      "stateMutability": "payable",
      "type": "function"
    },
    {
      "constant": false,
      "inputs": [
        {
          "name": "_weiAmount",
          "type": "uint256"
        }
      ],
      "name": "getEthers",
      "outputs": [],
      "payable": false,
      "stateMutability": "nonpayable",
      "type": "function"
    },
    {
      "constant": false,
      "inputs": [
        {
          "name": "_addr",
          "type": "address"
        },
        {
          "name": "_weiAmount",
          "type": "uint256"
        }
      ],
      "name": "sendEthersToWallet",
      "outputs": [],
      "payable": false,
      "stateMutability": "nonpayable",
      "type": "function"
    },
    {
      "constant": false,
      "inputs": [
        {
          "name": "_addr",
          "type": "address"
        },
        {
          "name": "_weiAmount",
          "type": "uint256"
        }
      ],
      "name": "sendEthersToContract",
      "outputs": [],
      "payable": false,
      "stateMutability": "nonpayable",
      "type": "function"
    },
    {
      "constant": true,
      "inputs": [],
      "name": "getBalance",
      "outputs": [
        {
          "name": "",
          "type": "uint256"
        }
      ],
      "payable": false,
      "stateMutability": "view",
      "type": "function"
    }
  ],
  "bytecode": "0x6060604052341561000f57600080fd5b6102618061001e6000396000f30060606040526004361061006d576000357c0100000000000000000000000000000000000000000000000000000000900463ffffffff16806312065fe01461006f57806354c0beea146100985780635727f4b8146100da57806375e2d177146100f2578063e79e0a2214610134575b005b341561007a57600080fd5b610082610157565b6040518082815260200191505060405180910390f35b34156100a357600080fd5b6100d8600480803573ffffffffffffffffffffffffffffffffffffffff16906020019091908035906020019091905050610176565b005b6100f060048080359060200190919050506101ba565b005b34156100fd57600080fd5b610132600480803573ffffffffffffffffffffffffffffffffffffffff169060200190919080359060200190919050506101bd565b005b341561013f57600080fd5b61015560048080359060200190919050506101f2565b005b60003073ffffffffffffffffffffffffffffffffffffffff1631905090565b8173ffffffffffffffffffffffffffffffffffffffff166108fc829081150290604051600060405180830381858888f1935050505015156101b657600080fd5b5050565b50565b8173ffffffffffffffffffffffffffffffffffffffff168160405160006040518083038185876187965a03f192505050505050565b3373ffffffffffffffffffffffffffffffffffffffff166108fc829081150290604051600060405180830381858888f19350505050151561023257600080fd5b505600a165627a7a72305820e890d67cf992e72c2bf2a15e4cdd1ac5de7d7e1cd63edba78c61bf7d77b5ea3f0029",
  "source": "pragma solidity ^0.4.19;\r\n\r\ncontract SimpleContract {\r\n\r\n    function SimpleContract() public {\r\n    }\r\n\r\n    function () external payable {\r\n    }\r\n\r\n    function receiveEthers(uint _weiAmount) public payable {\r\n    }\r\n\r\n    function getEthers(uint _weiAmount) public {\r\n        msg.sender.transfer(_weiAmount);\r\n    }\r\n\r\n    function sendEthersToWallet(address _addr, uint _weiAmount) public {\r\n        _addr.transfer(_weiAmount);\r\n    }\r\n\r\n    function sendEthersToContract(address _addr, uint _weiAmount) public {\r\n        _addr.call.value(_weiAmount)();\r\n    }\r\n\r\n    function getBalance() public view returns (uint) {\r\n        return this.balance;\r\n    }\r\n\r\n}\r\n",
  "sourcePath": "D:\\Projects\\DevCamp-SoftUni\\AppDApp\\Contracts\\contracts\\SimpleContract.sol",
  "compiler": {
    "name": "solc",
    "version": "0.4.19+commit.c4cbbb05.Emscripten.clang"
  },
  "schemaVersion": "1.0.1",
  "updatedAt": "2018-03-09T19:51:22.111Z"
}