{
  "contractName": "Voting",
  "abi": [
    {
      "constant": true,
      "inputs": [],
      "name": "votesReceived",
      "outputs": [
        {
          "name": "",
          "type": "uint8"
        }
      ],
      "payable": false,
      "stateMutability": "view",
      "type": "function"
    },
    {
      "inputs": [],
      "payable": false,
      "stateMutability": "nonpayable",
      "type": "constructor"
    },
    {
      "constant": true,
      "inputs": [],
      "name": "getVotes",
      "outputs": [
        {
          "name": "",
          "type": "uint8"
        }
      ],
      "payable": false,
      "stateMutability": "view",
      "type": "function"
    },
    {
      "constant": false,
      "inputs": [],
      "name": "incrementVotes",
      "outputs": [
        {
          "name": "",
          "type": "uint8"
        }
      ],
      "payable": false,
      "stateMutability": "nonpayable",
      "type": "function"
    }
  ],
  "bytecode": "0x6060604052341561000f57600080fd5b6101808061001e6000396000f300606060405260043610610057576000357c0100000000000000000000000000000000000000000000000000000000900463ffffffff1680630dc960151461005c57806323d1c1251461008b578063713fda97146100ba575b600080fd5b341561006757600080fd5b61006f6100e9565b604051808260ff1660ff16815260200191505060405180910390f35b341561009657600080fd5b61009e6100ff565b604051808260ff1660ff16815260200191505060405180910390f35b34156100c557600080fd5b6100cd610142565b604051808260ff1660ff16815260200191505060405180910390f35b60008060009054906101000a900460ff16905090565b600060016000808282829054906101000a900460ff160192506101000a81548160ff021916908360ff1602179055506000809054906101000a900460ff16905090565b6000809054906101000a900460ff16815600a165627a7a7230582035be7a0ea8847d4353c91ef70448362c495ac661717e105e8a426acc1eb2ed420029",
  "source": "pragma solidity ^0.4.18;\r\n// We have to specify what version of compiler this code will compile with\r\n\r\ncontract Voting {\r\n  \r\n  uint8 public votesReceived;\r\n  \r\n  function Voting() public {\r\n  }\r\n\r\n  // This function returns the total votes a candidate has received so far\r\n  function getVotes() view public returns (uint8) {\r\n        return votesReceived;\r\n  }\r\n\r\n  \r\n  // This function returns the total votes a candidate has received so far\r\n  function incrementVotes() public returns (uint8) {\r\n        votesReceived += 1;\r\n        return votesReceived;\r\n  }\r\n}",
  "sourcePath": "E:\\Downloads\\Games\\Work and docs\\Proekti po programirane\\DevCamp-DApp1\\Contracts\\contracts\\Voting.sol",
  "compiler": {
    "name": "solc",
    "version": "0.4.19+commit.c4cbbb05.Emscripten.clang"
  },
  "schemaVersion": "2.0.0",
  "updatedAt": "2018-03-04T00:09:00.653Z"
}